:100000000C9432010C944F010C944F010C944F014D
:100010000C944F010C944F010C944F010C944F0120
:100020000C944F010C944F020C944F010C94290333
:100030000C941F020C944F010C944F010C944F012F
:100040000C944F010C944F010C944F010C944F01F0
:100050000C944F015B036903770383038F039F03B2
:10006000B403B80300C0C101C30302C2C60607C778
:1000700005C5C404CC0C0DCD0FCFCE0E0ACACB0BD8
:10008000C90908C8D81819D91BDBDA1A1EDEDF1F08
:10009000DD1D1CDC14D4D515D71716D6D21213D3F8
:1000A00011D1D010F03031F133F3F23236F6F737A8
:1000B000F53534F43CFCFD3DFF3F3EFEFA3A3BFB98
:1000C00039F9F83828E8E929EB2B2AEAEE2E2FEF48
:1000D0002DEDEC2CE42425E527E7E62622E2E323B8
:1000E000E12120E0A06061A163A3A26266A6A767E8
:1000F000A56564A46CACAD6DAF6F6EAEAA6A6BAB58
:1001000069A9A86878B8B979BB7B7ABABE7E7FBF87
:100110007DBDBC7CB47475B577B7B67672B2B37377
:10012000B17170B050909151935352929656579727
:10013000559594549C5C5D9D5F9F9E5E5A9A9B5B17
:1001400099595898884849894B8B8A4A4E8E8F4FC7
:100150008D4D4C8C44848545874746868242438337
:100160004181804000C1814001C0804101C0804187
:1001700000C1814001C0804100C1814000C1814077
:1001800001C0804101C0804100C1814000C1814067
:1001900001C0804100C1814001C0804101C0804157
:1001A00000C1814001C0804100C1814000C1814047
:1001B00001C0804100C1814001C0804101C0804137
:1001C00000C1814000C1814001C0804101C0804127
:1001D00000C1814001C0804100C1814000C1814017
:1001E00001C0804101C0804100C1814000C1814007
:1001F00001C0804100C1814001C0804101C08041F7
:1002000000C1814000C1814001C0804101C08041E6
:1002100000C1814001C0804100C1814000C18140D6
:1002200001C0804100C1814001C0804101C08041C6
:1002300000C1814001C0804100C1814000C18140B6
:1002400001C0804101C0804100C1814000C18140A6
:1002500001C0804100C1814001C0804101C0804196
:1002600000C1814011241FBECFE5D4E0DEBFCDBF69
:1002700010E0A0E6B0E0E2EAF1E102C005900D92E4
:10028000AA36B107D9F720E0AAE6B0E001C01D9276
:10029000A93DB207E1F70E94BD050C94CF080C946C
:1002A0000000F894E199FECF9FBB8EBB6DBBE29A34
:1002B000E19A20EE3EE22150310921153105D9F7AE
:1002C000E199FECF1DBA9FBB8EBBE09A1FBA1EBA42
:1002D00078940895E199FECF9FBB8EBBE09A1FBA38
:1002E0001EBA8DB3089580EC8093B20089EF80939D
:1002F000B30084EA8093B40080EB8093B50089E971
:100300008093B60082E98093B70082E88093B800BA
:1003100088EF8093B90080E88093BA0080E98093E9
:10032000BB0080E48093BC0089E78093BD0084E239
:100330008093BE0080E38093BF0089E18093C0007A
:1003400082E18093C10082E08093C20088E78093BD
:10035000C3001092C40080E18093C5008FEB8093AE
:10036000C6008FEF8093C70087E88093C80086E8B7
:100370008093C9008EEC8093CA008FEA8093CB00F3
:100380008CE98093CC0081E98093CD008BEA809347
:10039000CE008EE88093CF0087E7809382008BE7C2
:1003A000809383008DE78093840008958091C70037
:1003B0008093AE0080938E008093D600089513BE84
:1003C00084EA82BF8CE58CBF82E083BF089581EF11
:1003D0008BBB8EE08ABB8FEF88BB17BA15BA84BB84
:1003E0008CEF82BB81BB92989398949895980895CE
:1003F0001BB886E880BD10BC88EB8AB90895A89523
:100400008FE181BD8FE081BD08950E94FF010E94B0
:10041000E7010E94730180E090E00E94D6010E94F3
:10042000DF010E94F80180E40E94FA0780E80E9440
:10043000FA0715BE1BBE81E089BF789408951F920C
:100440000F920FB60F9211248F939F93EF93FF9308
:10045000809176008823D1F090917500981770F400
:100460005E9AE0917500F0E0E356FF4F80818CB911
:10047000809175008F5F8093750008C05E9BFECFF2
:1004800010927400979ADF98549A5398FF91EF91C5
:100490009F918F910F900FBE0F901F9018951F92F4
:1004A0000F920FB60F9211242F938F939F93AF93B8
:1004B000BF9384EA82BF82E083BF80917C009091E9
:1004C0007D00A0917E00B0917F00803721E19207EE
:1004D00021E0A207B10591F0803E22E2920722E0DE
:1004E000A207B10559F00196A11DB11D80937C00B2
:1004F00090937D00A0937E00B0937F008091770061
:10050000882399F08091780090917900A0917A00E9
:10051000B0917B000196A11DB11D8093780090934E
:100520007900A0937A00B0937B00C89906C08091AF
:100530006E008F5F80936E0042C080916E008430A9
:10054000B0F080916F008F5F843018F480936F005B
:1005500002C010926F0081E090E0A0E0B0E08093D4
:100560006A0090936B00A0936C00B0936D001092A2
:100570006E0080916A0090916B00A0916C00B09128
:100580006D000097A105B105D1F00196A11DB11D27
:1005900080936A0090936B00A0936C00B0936D0001
:1005A000813A9648A140B10550F010926A0010922D
:1005B0006B0010926C0010926D0010926F008BB364
:1005C0008E608BBB80917000813061F018F08230BA
:1005D00089F016C0D9988091AE0085BB81E08093E8
:1005E00070000EC0DA9880918E0085BB82E0809307
:1005F000700006C0DB988091D60085BB1092700019
:10060000BF91AF919F918F912F910F900FBE0F903F
:100610001F90189561157105B9F0DC01680F791FFD
:100620008FEF4FEF2D914227242F30E0A9014C5935
:100630005E4FFA01449148272C593F4FF9018491AC
:10064000A617B70779F702C08FEF4FEF90E0942B12
:1006500008951F920F920FB60F921124CF92DF923E
:10066000FF920F931F932F933F934F935F936F933B
:100670007F938F939F93AF93BF93EF93FF93CF930A
:10068000DF93CDB7DEB72C97DEBFCDBF96988091B4
:100690007300883030F49CB1E82FF0E0EB56FF4F48
:1006A000908390E08830910508F030C1FC01E65D50
:1006B000FF4F0C94B508909195008091910098138C
:1006C00004C081E08093730024C110927300969A55
:1006D00020C180919600833011F0863021F482E0B1
:1006E0008093730016C110927300969A12C1809184
:1006F0009700811104C083E0809373000AC11092B7
:100700007300969A06C180919800863020F484E0A8
:1007100080937300FEC010927300969AFAC0809185
:100720009600863021F080919900811104C085E007
:1007300080937300EEC010927300969AEAC0809185
:100740009600863049F02091980080919A0090E0C0
:10075000820F911D079724F486E080937300D9C01F
:1007600010927300969AD5C087E080937300D1C031
:1007700066E070E085E990E00E940A03AC0155272D
:1007800020919C0030E04217530709F0BBC0892F2D
:10079000992720919B0030E08217930709F0B2C09F
:1007A00081E0809374002091970030E0322F22275F
:1007B00080919800280F311D0091990010E0102FB2
:1007C000002780919A00080F111DA80180919600C2
:1007D000833009F060C019828091D0008A831B8227
:1007E0008091D2008C831D82809180008E838091C5
:1007F00067008F8380916600888780916500898774
:10080000809164008A87809172008B87809171004B
:100810008C878091910080939D0083E080939E005F
:10082000F02EFF0CF0929F00000F111F0115110513
:10083000D1F0220F331F80E090E040E0E42FF0E0A1
:10084000E356FF4F61E070E06C0F7D1F860F971F2E
:10085000DC01A20FB31F8C9183834F5F842F90E044
:100860008017910758F3680173E0C70ED11CB601D9
:100870008DE990E00E940A03F601E356FF4F908352
:10088000F801E356FF4F848385E08F0D8093760057
:10089000109275002FC0E5E9F0E0ADE9B0E08DE918
:1008A00090E061916D93E817F907D9F788E080939C
:1008B0007600109275002115310551F44430510530
:1008C00018F40093AF0016C083E08093AF0012C00D
:1008D0002130310551F44230510518F400938F0056
:1008E00009C081E080938F0005C02230310511F4EA
:1008F00000939000DF9A97985498539A109273003F
:10090000969A07C010927300969A03C010927300D3
:10091000969A2C960FB6F894DEBF0FBECDBFDF912E
:10092000CF91FF91EF91BF91AF919F918F917F9167
:100930006F915F914F913F912F911F910F91FF9078
:10094000DF90CF900F900FBE0F901F901895E5E8A5
:10095000F0E02DE830E080E078E06CE84191972FFE
:10096000582F54278695469550FD86279150C1F7FC
:10097000E217F30799F708952091860022239CF54A
:1009800030E080E0829FA001839F500D521B112414
:1009900080918500481B51099A0135952795359519
:1009A0002795359527953595279566EF6203C00104
:1009B000639F900D11244F7055279A01220F331F0A
:1009C000440F551F440F551F440F551F420F531F0F
:1009D00055954795559547955595479555954795FF
:1009E000841B950B089530E0322F222780918500DB
:1009F000280F311DC90195958795959587959595F2
:100A0000879595958795AC01440F551F880F991FC1
:100A1000880F991F880F991F840F951F2F703327F8
:100A2000A901440F551F220F331F220F331F220F1E
:100A3000331F240F351F3595279535952795359507
:100A4000279535952795820F931F08956F927F9272
:100A50009F92AF92BF92CF92DF92EF92FF920F934D
:100A60001F93CF93DF933C01962E7A016901809109
:100A700074008111FFCFF8948BB38E608BBB862FEF
:100A80000E945208892D0E949C08692D84E40E94CE
:100A90007308892D0E945208892D0E949C08692D97
:100AA0008EEB0E947308C5E8D0E00F2EFEE8AF2E53
:100AB000F0E0BF2EF02D892D0E9489088993CA1578
:100AC000DB05C9F7789400917C0010917D0020919E
:100AD0007E0030917F00003781E1180781E0280710
:100AE000310569F481E791E1A1E0B0E080937C00F9
:100AF00090937D00A0937E00B0937F000DC0003ED8
:100B000012422240310541F410927C0010927D0087
:100B100010927E0010927F000E94A70490918D0099
:100B200089130BC0F30110820E94BC04F60180837C
:100B30009183F7018083918304C0F30180818F5FEB
:100B40008083F3018081863050F081E0F70180835B
:100B500080E8818381E090E8F60191838083DF91D2
:100B6000CF911F910F91FF90EF90DF90CF90BF90AA
:100B7000AF909F907F906F9008950E94050282B37E
:100B8000807C82BB82B3806C82BB539A549ADF987C
:100B90008CE291E00E946A01809380008093900033
:100BA00082E3809394008093D1000F2EFBE0BF2E50
:100BB000F02D0F2EF7E1AF2EF02DC1E7D0E00F2E74
:100BC000F4E6CF2ED12CF02D0AE010E00F2EF5E147
:100BD000EF2EF12CF02D0F2EF7E12F2E312CF02DD2
:100BE0000F2EF9E18F2E912CF02D0F2EFDE16F2E9F
:100BF000712CF02D0F2EFAE14F2E512CF02D86B3D3
:100C000080958F71880F8093D30099B390959295BA
:100C100091709093D400890F80939100A89589B327
:100C2000809580768295869587708093D500909187
:100C300068008917A9F0813019F48FE289B90CC0D6
:100C4000823011F4A9B808C0811102C0B9B804C03B
:100C5000833011F423E029B98091D5008093680096
:100C600080917C0090917D00A0917E00B0917F00EA
:100C700080379141A140B10549F422E630E046E6D3
:100C800050E060E484E990E00E94260580917C00B9
:100C900090917D00A0917E00B0917F00803E9242B5
:100CA000A240B10549F420E630E044E650E060E8B7
:100CB00081ED90E00E942605188280916F008130BE
:100CC00009F464C038F0823009F4BCC0833009F400
:100CD000D5C0F8C02091620030916300213080E8D7
:100CE000380769F430929300209292009092B100FC
:100CF0008092B0009092D8008092D700E3C0332356
:100D00001CF584E190E09093930080939200C901D8
:100D1000B6010E94A108FB017093B1006093B0007E
:100D2000C901B8010E94A108CB01B8010E94A10825
:100D30009093D8008093D700EF2B09F0C3C0F092B6
:100D4000B100E092B000BEC0C901B6010E94A10886
:100D5000FB017093930060939200C901B8010E9457
:100D6000A1089093D8008093D700CB01B8010E94CE
:100D7000A1080A969093B1008093B000EF2B09F080
:100D8000A1C0F0929300E09292009CC0209160007C
:100D900030916100213090E8390769F43092930076
:100DA000209292009092B1008092B0009092D80070
:100DB0008092D70087C033231CF584E190E09093A4
:100DC000930080939200C901B6010E94A108FB0123
:100DD0007093B1006093B000C901B8010E94A108EE
:100DE000CB01B8010E94A1089093D8008093D7004E
:100DF000EF2B09F067C0F092B100E092B00062C042
:100E0000C901B6010E94A108FB0170939300609391
:100E10009200C901B8010E94A1089093D800809364
:100E2000D700CB01B8010E94A1080A969093B100A7
:100E30008093B000EF2B09F045C0F0929300E09250
:100E4000920040C010929300109292008091D200C4
:100E5000811109C07092B1006092B0007092D80008
:100E60006092D7002FC02CE130E03093B100209386
:100E7000B000F092D800E092D70024C0209180000A
:100E80003DEC239F312D1124369536953695832FD1
:100E900090E09093930080939200330F432F440F80
:100EA000440F340F231B30E03093B1002093B00087
:100EB000892B21F4F0929300E09292005092D80096
:100EC0004092D700F894E0919200F0919300EE5494
:100ED000FF4F80818093AE00E091B000F091B100AF
:100EE000EE54FF4F808180938E00E091D700F09107
:100EF000D800EE54FF4F80818093D60078942091E3
:100F0000AF008091D0008217B1F18091780090916C
:100F10007900A0917A00B0917B0088389341A105B7
:100F2000B105F8F0809177008823F9F082B38C71D5
:100F300011F52093D0001092780010927900109251
:100F40007A0010927B0010927700213011F4929A6F
:100F500012C0223011F4939A0EC0233060F0949A9C
:100F60000AC080917700811106C082B3837E82BB64
:100F700081E08093770080918000609190008617D7
:100F800039F0609380008CE291E00E9451010BC027
:100F90008F3F49F4109280001092900060E08CE244
:100FA00091E00E94510120918000211107C08091A1
:100FB0008F008093D20081111BC018C08091D00097
:100FC000882391F030E08091620090916300B80135
:100FD0000E94A1086217730724F481E08093D20075
:100FE00007C01092D20002C01092D200959807CE8E
:100FF000959A05CE97B38095982397BB98B389238C
:1010000088BB88EB92E00197F1F700C000000895DB
:1010100097B3982B97BB98B38095982398BB95E08E
:101020009A95F1F7000097B3982397BB98B389235B
:1010300088BB86E58A95F1F700C0089597B3982B91
:1010400097BB98B38095982398BBECEEF0E031976E
:10105000F1F700C0000097B3982397BB98B389239A
:1010600088BBFCE0FA95F1F7089597B3982B97BBEE
:1010700028B3982F9095292328BB25E02A95F1F7CE
:10108000000027B3292327BB28B3922398BB99E0FC
:101090009A95F1F7000096B329E42A95F1F700003C
:1010A0008923089597B3982B97BB28B3982F9095D1
:1010B000292328BBE8EBF2E03197F1F700C00000EC
:1010C00027B3292327BB28B3922398BBF0E6FA95D0
:1010D000F1F796B3E0EAF1E03197F1F700C00000D4
:1010E0009095892308951F93CF93DF93D82F162FC0
:1010F000C8E0D0FF04C0812F0E94080803C0812FE0
:101100000E941E08D695C150A1F7DF91CF911F9183
:1011100008951F93CF93DF93182FD8E0C0E0C695B2
:10112000812F0E9435088111C068D150C1F78C2FE2
:10113000DF91CF911F910895682F8CEC0E94730866
:10114000089597FB072E16F4009407D077FD09D079
:101150000E94BB0807FC05D03EF4909581959F4FF7
:101160000895709561957F4F0895EE0FFF1F0590CC
:10117000F491E02D0994AA1BBB1B51E107C0AA1FE3
:10118000BB1FA617B70710F0A61BB70B881F991F28
:101190005A95A9F780959095BC01CD010895F894D2
:0211A000FFCF7F
:0A11A2000180018001800180FA0045
:00000001FF
