S00D00004644522D312E73726563DD
S11300000C9432010C944F010C944F010C944F0149
S11300100C944F010C944F010C944F010C944F011C
S11300200C944F010C94F4040C944F010C941F0392
S11300300C941F020C944F010C944F010C944F012B
S11300400C944F010C944F010C944F010C944F01EC
S11300500C944F01440350035C03660370037E0356
S11300609203960300C0C101C30302C2C60607C7B8
S113007005C5C404CC0C0DCD0FCFCE0E0ACACB0BD4
S1130080C90908C8D81819D91BDBDA1A1EDEDF1F04
S1130090DD1D1CDC14D4D515D71716D6D21213D3F4
S11300A011D1D010F03031F133F3F23236F6F737A4
S11300B0F53534F43CFCFD3DFF3F3EFEFA3A3BFB94
S11300C039F9F83828E8E929EB2B2AEAEE2E2FEF44
S11300D02DEDEC2CE42425E527E7E62622E2E323B4
S11300E0E12120E0A06061A163A3A26266A6A767E4
S11300F0A56564A46CACAD6DAF6F6EAEAA6A6BAB54
S113010069A9A86878B8B979BB7B7ABABE7E7FBF83
S11301107DBDBC7CB47475B577B7B67672B2B37373
S1130120B17170B050909151935352929656579723
S1130130559594549C5C5D9D5F9F9E5E5A9A9B5B13
S113014099595898884849894B8B8A4A4E8E8F4FC3
S11301508D4D4C8C44848545874746868242438333
S11301604181804000C1814001C0804101C0804183
S113017000C1814001C0804100C1814000C1814073
S113018001C0804101C0804100C1814000C1814063
S113019001C0804100C1814001C0804101C0804153
S11301A000C1814001C0804100C1814000C1814043
S11301B001C0804100C1814001C0804101C0804133
S11301C000C1814000C1814001C0804101C0804123
S11301D000C1814001C0804100C1814000C1814013
S11301E001C0804101C0804100C1814000C1814003
S11301F001C0804100C1814001C0804101C08041F3
S113020000C1814000C1814001C0804101C08041E2
S113021000C1814001C0804100C1814000C18140D2
S113022001C0804100C1814001C0804101C08041C2
S113023000C1814001C0804100C1814000C18140B2
S113024001C0804101C0804100C1814000C18140A2
S113025001C0804100C1814001C0804101C0804192
S113026000C1814011241FBECFE5D4E0DEBFCDBF65
S113027010E0A0E6B0E0E4EAF1E102C005900D92DE
S1130280AA36B107D9F722E0AAE6B0E001C01D9270
S1130290A53CB207E1F70E94F2050C94D0080C9437
S11302A00000F894E199FECF9FBB8EBB6DBBE29A30
S11302B0E19A20EE3EE22150310921153105D9F7AA
S11302C0E199FECF1DBA9FBB8EBBE09A1FBA1EBA3E
S11302D078940895E199FECF9FBB8EBBE09A1FBA34
S11302E01EBA8DB3089580EC8093950289EF8093B4
S11302F0960284EA8093970280EB8093980289E9BE
S11303008093990282E980939A0282E880939B0207
S113031088EF80939C0280E880939D0280E980931B
S11303209E0280E480939F0289E78093A00284E286
S11303308093A10280E38093A20289E18093A302C7
S113034082E18093A40282E08093A50288E78093EF
S1130350A6021092A70280E18093A8028FEB8093FB
S1130360A9028FEF8093AA0287E88093AB0286E804
S11303708093AC028EEC8093AD028FEA8093AE0240
S11303808CE98093AF0281E98093B0028BEA809379
S1130390B1028EE88093B20287E7809380008BE7F6
S11303A0809381008DE78093820008958091AA0252
S11303B080938802809383008093C202089513BEC1
S11303C084EA82BF8CE58CBF82E083BF089581EF0D
S11303D08BBB8EE08ABB8FEF88BB17BA15BA84BB80
S11303E08CEF82BB81BB92989398949895980895CA
S11303F01BB886E880BD10BC88EB8AB90895A8951F
S11304008FE181BD8FE081BD08950E94FF010E94AC
S1130410E7010E94730180E090E00E94D6010E94EF
S1130420DF010E94F80180E40E94FB0780E80E943B
S1130430FB0715BE1BBE81E489BF789408951F9203
S11304400F920FB60F9211248F939F93EF93FF9304
S1130450809175008823C1F090917400981770F40E
S11304605E9AE0917400F0E0E757FE4F80818CB90A
S1130470809174008F5F8093740006C05E9BFECFF2
S1130480979ADF98549A5398FF91EF919F918F9187
S11304900F900FBE0F901F901895EAE8F0E0A9E8BE
S11304A0B1E022E930E041914D93E217F307D9F727
S11304B028E02093750010927400DF9A979854985E
S11304C0539A009751F46430710518F460938902CB
S11304D0089583E08093890208958130910551F451
S11304E06230710518F460938400089581E080936C
S11304F084000895029711F46093850008956115AE
S11305007105B9F0DC01680F791F8FEF4FEF2D9162
S11305104227242F30E0A9014C595E4FFA0144913F
S113052048272C593F4FF9018491A617B70779F74B
S113053002C08FEF4FEF90E0942B0895CF92DF929B
S1130540FF920F931F93CF93DF93CDB7DEB72C9712
S11305500FB6F894DEBF0FBECDBF19822091B3024F
S11305602A831B822091B5022C831D8220917E0058
S11305702E83209167002F83209166002887209185
S113058065002987209164002A87209172002B87B7
S1130590209171002C87209186002093890123E00B
S11305A020938A01F62EFF0CF0928B018B01000F31
S11305B0111F01151105D1F0880F991F20E030E0BB
S11305C040E0E42FF0E0E757FE4F61E070E06C0F8D
S11305D07D1F260F371FD901A80FB91F2C91238324
S11305E04F5F242F30E02017310758F3680173E080
S11305F0C70ED11CB60189E891E00E947F02F60182
S1130600E757FE4F9083F801E757FE4F848385E058
S11306108F0D8093750010927400DF9A9798549808
S1130620539A2C960FB6F894DEBF0FBECDBFDF9160
S1130630CF911F910F91FF90DF90CF9008951F925B
S11306400F920FB60F9211242F933F934F935F9302
S11306506F937F938F939F93AF93BF93EF93FF9386
S11306609698F894809173002CB1E82FF0E0E65747
S1130670FF4F208390E08830910508F0A2C0FC0170
S1130680E65DFF4F0C94B60880918600281304C0E1
S113069081E08093730098C010927300969A94C07E
S11306A0233011F0263021F482E0809373008CC053
S11306B010927300969A88C0211104C083E080933D
S11306C0730082C010927300969A7EC0263020F484
S11306D084E08093730078C010927300969A74C07B
S11306E080918B00863011F0211104C085E0809345
S11306F073006AC010927300969A66C080918B0052
S1130700863041F030918D00822F90E0830F911D4F
S1130710079724F486E08093730056C01092730008
S1130720969A52C087E0809373004EC066E070E0F2
S11307308AE890E00E947F02AC0155272091910045
S113074030E042175307C9F5892F9927209190006B
S113075030E08217930789F580918B008330A9F4E8
S113076060918E0070E0762F662780918F00680F6D
S1130770711D80918C0090E0982F882720918D0026
S1130780820F911D0E949E0214C060918E0070E041
S1130790762F662780918F00680F711D80918C00E1
S11307A090E0982F882720918D00820F911D0E9440
S11307B04D0210927300969A07C010927300969A95
S11307C003C010927300969A7894FF91EF91BF91B1
S11307D0AF919F918F917F916F915F914F913F91D5
S11307E02F910F900FBE0F901F901895FC0158E0A9
S11307F080E068E04CE82191962F382F32278695C7
S1130800269530FD84279150C1F75150A1F70895E2
S1130810FC012181222394F530E060E0629FA00175
S1130820639F500D521B11248081481B51099A016A
S1130830359527953595279535952795359527959C
S113084066EF6203C001639F900D11244F7055271A
S11308509A01220F331F440F551F440F551F440F95
S1130860551F420F531F55954795559547955595D7
S1130870479555954795841B950B089530E0322F85
S11308802227FC018081280F311DC9019595879588
S1130890959587959595879595958795AC01440F82
S11308A0551F880F991F880F991F880F991F840F50
S11308B0951F2F703327A901440F551F220F331F93
S11308C0220F331F220F331F240F351F3595279511
S11308D0359527953595279535952795820F931F3F
S11308E008957F928F929F92AF92BF92CF92DF92A0
S11308F0EF92FF920F931F93CF93DF937C016B01D1
S1130900742E5901FC0180818F5F8083F8948BB32E
S11309108E608BBB842F0E9453087894F8948BB319
S11309208E608BBB872D0E949D087894F8948BB3BE
S11309308E608BBB672D84E40E9474087894F894CD
S11309408BB38E608BBB872D0E9453087894F894E8
S11309508BB38E608BBB872D0E949D087894F8948E
S11309608BB38E608BBB672D8EEB0E947408E601FF
S1130970812C912C872D0E948A088993FFEF8F1A6E
S11309809F0A89E088169104A9F77894C6010E9409
S1130990F603F601908589130BC0F7011082C60196
S11309A00E940804F80180839183F5018083918378
S11309B0F7018081873050F081E0F501808380E881
S11309C0818381E090E8F80191838083DF91CF9166
S11309D01F910F91FF90EF90DF90CF90BF90AF9059
S11309E09F908F907F9008951F920F920FB60F9251
S11309F011240F931F932F933F934F935F936F9300
S1130A007F938F939F93AF93BF93EF93FF9384EA66
S1130A1082BF82E083BF80917A0090917B00A09195
S1130A207C00B0917D000196A11DB11D80937A00D8
S1130A3090937B00A0937C00B0937D00409176005E
S1130A4050917700609178007091790041155105BB
S1130A506105710561F04F5F5F4F6F4F7F4F4093AA
S1130A607600509377006093780070937900803714
S1130A709141A140B10559F402E610E026E630E0C8
S1130A8040E468EB72E089E890E00E947104809190
S1130A907A0090917B00A0917C00B0917D00803E13
S1130AA09242A240B10559F400E610E024E630E099
S1130AB040E86AE872E084EB92E00E94710480915D
S1130AC07A0090917B00A0917C00B0917D00813EE2
S1130AD09242A240B10540F010927A0010927B003D
S1130AE010927C0010927D00C89906C080916E001F
S1130AF08F5F80936E0042C080916E008430B0F0AE
S1130B0080916F008F5F843018F480936F0002C06F
S1130B1010926F0081E090E0A0E0B0E080936A0062
S1130B2090936B00A0936C00B0936D0010926E00D4
S1130B3080916A0090916B00A0916C00B0916D005F
S1130B400097A105B105D1F00196A11DB11D8093B7
S1130B506A0090936B00A0936C00B0936D00813A8F
S1130B609648A140B10550F010926A0010926B00B3
S1130B7010926C0010926D0010926F008BB38E6017
S1130B808BBB80917000813061F018F0823089F065
S1130B9016C0D9988091880285BB81E0809370004B
S1130BA00EC0DA988091830085BB82E08093700048
S1130BB006C0DB988091C20285BB10927000FF9141
S1130BC0EF91BF91AF919F918F917F916F915F91C1
S1130BD04F913F912F911F910F910F900FBE0F9046
S1130BE01F9018950E94050282B3807C82BB82B359
S1130BF0806C82BB539A549ADF988CE291E00E94F5
S1130C006A0180937E008093850082E3809389004B
S1130C108093B402C1E7D0E00F2EF4E66F2E712C5E
S1130C20F02D0AE010E00F2EF5E18F2E912CF02D1F
S1130C300F2EF9E14F2E512CF02D0F2EFDE12F2E0A
S1130C40312CF02D0F2EFAE1AF2EB12CF02DC12C4A
S1130C50D12C7601C39486B380958F71880F8093CD
S1130C60B60299B39095929591709093B702890FBB
S1130C7080938600A89589B3809580768295869521
S1130C8087708093C102909168008917B1F0813018
S1130C9019F48FE289B90DC0823019F487E189B95A
S1130CA008C0811103C03BE039B903C0833009F4A3
S1130CB089B98091C10280936800188280916F0085
S1130CC0813009F466C038F0823009F4C0C0833042
S1130CD009F4D9C0FCC02091620030916300213036
S1130CE090E8390779F487E190E090938800809345
S1130CF0870050929402409293025092C402409210
S1130D00C302E5C033231CF584E190E0909388008E
S1130D1080938700C901B3010E94A208FB0170936C
S1130D20940260939302C901B8010E94A208CB0106
S1130D30B8010E94A2089093C4028093C302EF2BCF
S1130D4009F0C5C09092940280929302C0C0C90178
S1130D50B3010E94A208FB0170938800609387008E
S1130D60C901B8010E94A2089093C4028093C302EF
S1130D70CB01B8010E94A2080A9690939402809332
S1130D809302EF2B09F0A3C0909288008092870011
S1130D909EC02091600030916100213090E83907B5
S1130DA079F487E190E090938800809387005092D3
S1130DB09402409293025092C4024092C30287C0AC
S1130DC033231CF584E190E090938800809387009E
S1130DD0C901B3010E94A208FB01709394026093BD
S1130DE09302C901B8010E94A208CB01B8010E9474
S1130DF0A2089093C4028093C302EF2B09F067C04A
S1130E00909294028092930262C0C901B3010E943D
S1130E10A208FB017093880060938700C901B801A0
S1130E200E94A2089093C4028093C302CB01B8012C
S1130E300E94A2080A969093940280939302EF2B47
S1130E4009F045C0909288008092870040C01092BB
S1130E508800109287008091B502811109C03092F8
S1130E609402209293023092C4022092C3022FC0B3
S1130E708CE190E090939402809393029092C40248
S1130E808092C30224C020917E003DEC239F312D2B
S1130E901124369536953695832F90E090938800EB
S1130EA080938700330F432F440F440F340F231BC9
S1130EB030E03093940220939302892B21F4909292
S1130EC0880080928700B092C402A092C302F89472
S1130ED0E0918700F0918800EB56FD4F808180936C
S1130EE08802E0919302F0919402EB56FD4F8081C9
S1130EF080938300E091C302F091C402EB56FD4F4E
S1130F0080818093C2027894209189028091B302F7
S1130F10821791F18091760090917700A0917800EA
S1130F20B09179000097A105B10561F49298939866
S1130F309498C0927600D0927700E0927800F09274
S1130F4079001AC088389341A105B105A8F0109220
S1130F507600109277001092780010927900209316
S1130F60B302213011F4929A07C0223011F4939AFB
S1130F7003C0233008F0949A80917E00609185002C
S1130F80861739F060937E008CE291E00E94510153
S1130F900BC08F3F49F410927E001092850060E0F0
S1130FA08CE291E00E94510120917E00211107C042
S1130FB0809184008093B50281111BC018C0809178
S1130FC0B302882391F030E0809162009091630035
S1130FD0B8010E94A2086217730724F481E0809389
S1130FE0B50207C01092B50202C01092B5029598DE
S1130FF032CE959A30CE97B38095982397BB98B309
S1131000892388BB88EB92E00197F1F700C00000C8
S1131010089597B3982B97BB98B38095982398BB62
S113102095E09A95F1F7000097B3982397BB98B38E
S1131030892388BB86E58A95F1F700C0089597B3A4
S1131040982B97BB98B38095982398BBECEEF0E06F
S11310503197F1F700C0000097B3982397BB98B37A
S1131060892388BBFCE0FA95F1F7089597B3982B90
S113107097BB28B3982F9095292328BB25E02A9560
S1131080F1F7000027B3292327BB28B3922398BB89
S113109099E09A95F1F7000096B329E42A95F1F7BF
S11310A000008923089597B3982B97BB28B3982FF2
S11310B09095292328BBE8EBF2E03197F1F700C0C3
S11310C0000027B3292327BB28B3922398BBF0E65B
S11310D0FA95F1F796B3E0EAF1E03197F1F700C041
S11310E000009095892308951F93CF93DF93D82F01
S11310F0162FC8E0D0FF04C0812F0E94090803C046
S1131100812F0E941F08D695C150A1F7DF91CF917E
S11311101F9108951F93CF93DF93182FD8E0C0E059
S1131120C695812F0E9436088111C068D150C1F73D
S11311308C2FDF91CF911F910895682F8CEC0E9422
S11311407408089597FB072E16F4009407D077FDD2
S113115009D00E94BC0807FC05D03EF49095819507
S11311609F4F0895709561957F4F0895EE0FFF1F6F
S11311700590F491E02D0994AA1BBB1B51E107C013
S1131180AA1FBB1FA617B70710F0A61BB70B881F13
S1131190991F5A95A9F780959095BC01CD010895A2
S10711A0F894FFCFED
S10D11A40180018001800180FA003F
S9030000FC
